:100000000C9438000C944D000C944D000C944D0051
:100010000C944D000C944D000C944D000C944D002C
:100020000C944D000C944D000C944D000C944D001C
:100030000C944D000C944D000C944D000C944D000C
:100040000C944D000C944D000C944D000C944D00FC
:100050000C944D000C944D000C944D000C944D00EC
:100060000C944D000C944D000C944D000C944D00DC
:1000700011241FBECFEFD4E0DEBFCDBF11E0A0E062
:10008000B1E0ECE4F1E002C005900D92AA30B107B6
:10009000D9F70E946C000C94A4000C94000010BCD2
:1000A0008FE189B988E18AB986E080BD08955D9BBA
:1000B000FECF8CB908955F9BFECF8CB10895CF938E
:1000C000DF93EC0103C021960E94570088818111C3
:1000D000FACFDF91CF910895CF93DF93CDB7DEB7FD
:1000E0002A970FB6F894DEBF0FBECDBF87B38160ED
:1000F00087BB0E944F008AE0E0E0F1E0DE0111964C
:1001000001900D928A95E1F788B3816088BB2FEF4B
:100110008FE797E0215080409040E1F700C0000059
:1001200098B381E0892788BB2FEF8FE797E02150B4
:1001300080409040E1F700C000000E945B00CE01CB
:0C01400001960E945F00E0CFF894FFCF12
:0A014C0044617461576F686F0A0088
:00000001FF
