:100000000C9438000C9455000C9455000C94550039
:100010000C9455000C9455000C9455000C9455000C
:100020000C9455000C9455000C9455000C945500FC
:100030000C9455000C9455000C9455000C945500EC
:100040000C9455000C9455000C9455000C94D90058
:100050000C9455000C94EE000C9455000C94550033
:100060000C9455000C9455000C9455000C945500BC
:1000700011241FBECFEFD4E0DEBFCDBF11E0A0E062
:10008000B1E0E2E9F2E002C005900D92A031B107C3
:10009000D9F721E0A0E1B1E001C01D92A432B2077E
:1000A000E1F70E9457000C9447010C9400000E9455
:1000B000B80078940E942E0180E091E00E94C80070
:1000C000F9CF2091120130E02F5F3F4F2F70307831
:1000D000332334F421503109206F3F6F2F5F3F4F9E
:1000E0004091110150E081E04217530709F080E090
:1000F00008952091120130E02F5F3F4F2F7030782C
:10010000332334F421503109206F3F6F2F5F3F4F6D
:1001100090911101921751F0E0911201F0E0ED5E23
:10012000FE4F80832093120181E0089580E00895BE
:10013000DC0120911201909111012917B9F0E09191
:100140001101F0E0ED5EFE4F80818C9380911101F2
:1001500090E001968F709078992324F40197806F36
:100160009F6F01968093110181E0089580E00895CA
:1001700010BC8FE189B988E98AB986E880BD089505
:100180000E947900882319F08AB180628AB90895A3
:10019000CF93DF93EC0107C00E9461008111FCCF77
:1001A00089910E94C00088818111F6CFDF91CF91A3
:1001B00008951F920F920FB60F9211248F938CB156
:1001C0008093230181E0809310018AB180628AB913
:1001D0008F910F900FBE0F901F9018951F920F9246
:1001E0000FB60F9211242F933F934F935F936F930A
:1001F0007F938F939F93AF93BF93EF93FF93CF938F
:10020000DF931F92CDB7DEB780911001882331F0C4
:10021000809123018CB9109210010CC0CE0101967F
:100220000E949800882319F089818CB903C08AB193
:100230008F7D8AB90F90DF91CF91FF91EF91BF91A0
:10024000AF919F918F917F916F915F914F913F916E
:100250002F910F900FBE0F901F901895B89903C063
:1002600087B3816087BB88B3816088BB83E294EFEA
:100270000197F1F700C0000098B381E0892788BB9F
:1002800083E294EF0197F1F700C000000895F8941D
:02029000FFCF9E
:1002920048656C6C6F20776F726C64210D0A0000E8
:00000001FF
