S01600004772757070655F32375F506F6E672E73726563E0
S11300000C9438000C944D000C944D000C944D004D
S11300100C944D000C944D000C944D000C944D0028
S11300200C944D000C944D000C944D000C944D0018
S11300300C944D000C944D000C944D000C944D0008
S11300400C944D000C944D000C944D000C949900AC
S11300500C944D000C944D000C944D000C944D00E8
S11300600C944D000C944D000C944D000C944D00D8
S113007011241FBECFEFD4E0DEBFCDBF11E0A0E05E
S1130080B1E0E6EAF1E002C005900D92A831B107B3
S1130090D9F70E9469000C94D1000C94000088B335
S11300A0816088BB2FEF8FEB93E02150804090401C
S11300B0E1F700C0000098B381E0892788BB2FEFE7
S11300C08FEB93E0215080409040E1F700C00000A6
S11300D00895CF93DF93CDB7DEB768970FB6F89442
S11300E0DEBF0FBECDBF78940E94890087B38160C4
S11300F087BB88E1E0E0F1E0DE01119601900D920A
S11301008A95E1F70E944F00CE0101960E94C40037
S1130110F9CF10BC8FE189B988E18AB98AB18068C6
S11301208AB98BB180688BB986E880BD08958CB993
S113013008951F920F920FB60F9211242F933F939D
S11301404F935F936F937F938F939F93AF93BF93DB
S1130150EF93FF938CB1813611F40E949700FF91C5
S1130160EF91BF91AF919F918F917F916F915F912B
S11301704F913F912F910F900FBE0F901F901895A4
S11301805D9BFECF8CB90895CF93DF93EC0103C040
S113019021960E94C00088818111FACFDF91CF910E
S10901A00895F894FFCF5E
S11301A6444154412066756E6B6572206672656DB6
S10B01B664656C65733F0A00E7
S9030000FC
