S01600004772757070655F32375F506F6E672E73726563E0
S11300000C9438000C9455000C9455000C94550035
S11300100C9455000C9455000C9455000C94550008
S11300200C9455000C9455000C9455000C945500F8
S11300300C9455000C9455000C9455000C945500E8
S11300400C9455000C9455000C9455000C94C80065
S11300500C9455000C9480000C9455000C9455009D
S11300600C9455000C9455000C9455000C945500B8
S113007011241FBECFEFD4E0DEBFCDBF12E0A0E05D
S1130080B1E0E2EEF1E002C005900D92AC32B107AE
S1130090D9F722E0ACE2B2E001C01D92AE32B20761
S11300A0E1F70E9471000C94EF000C94000088B3F7
S11300B0816088BB2FEF8FEB93E02150804090400C
S11300C0E1F700C0000098B381E0892788BB2FEFD7
S11300D08FEB93E0215080409040E1F700C0000096
S11300E0089578940E94B50087B3816087BB0E940D
S11300F0570084EA8A95F1F78AB180628AB9F7CF0A
S11301001F920F920FB60F9211242F933F938F9348
S11301109F93EF93FF93E0912C02F0912D02EE5FF9
S1130120FE4F80818CB980912C0290912D02019612
S113013090932D0280932C022091000130910101B3
S11301408217930738F08AB18F7D8AB910922D02F5
S113015010922C02FF91EF919F918F913F912F91DB
S11301600F900FBE0F901F90189510BC8FE189B9A6
S113017088E18AB98AB180688AB98BB180688BB901
S11301808BB180628BB986E880BD08958CB90895DF
S11301901F920F920FB60F9211242F933F934F93F8
S11301A05F936F937F938F939F93AF93BF93EF93DB
S11301B0FF938CB1813611F40E94C600FF91EF9138
S11301C0BF91AF919F918F917F916F915F914F916B
S11301D03F912F910F900FBE0F901F901895F89498
S10501E0FFCF4B
S11301E22A014444444444444454545454545454B6
S11301F254545454545454545454545454545454B9
S113020254545454545454545454545454545454A8
S11302125454545454545454545454545454545498
S11302225454545454545454545454545454545488
S11302325454545454545454545454545454545478
S11302425454545454545454545454545454545468
S11302525454545454545454545454545454545458
S11302625454545454545454545454545454545448
S11302725454545454545454545454545454545438
S11302825454545454545454545454545454545428
S11302925454545454545454545454545454545418
S11302A25454545454545454545454545454545408
S11302B254545454545454545454545454545454F8
S11302C254545454545454545454545454545454E8
S11302D254545454545454545454545454545454D8
S11302E254545454545454545454545454545454C8
S11302F254545454545454545454545454545454B8
S10F0302545454545442424242424200BB
S9030000FC
