:100000000C9438000C944D000C944D000C944D0051
:100010000C944D000C944D000C944D000C944D002C
:100020000C944D000C944D000C944D000C944D001C
:100030000C944D000C944D000C944D000C944D000C
:100040000C944D000C944D000C944D000C944D00FC
:100050000C944D000C944D000C944D000C944D00EC
:100060000C944D000C944D000C944D000C944D00DC
:1000700011241FBECFEFD4E0DEBFCDBF11E0A0E062
:10008000B1E0E6E4F1E002C005900D92A633B107BD
:10009000D9F70E9482000C94A1000C94000010BCBF
:1000A0008FE189B988E18AB98EE880BD08955D9BAA
:1000B000FECF8CB90895CF93DF93EC0103C0219656
:1000C0000E94570088818111FACFDF91CF91089566
:1000D00088B3816088BB2FEF8FEB93E02150804085
:1000E0009040E1F700C0000098B381E0892788BB09
:1000F0002FEF8FEB93E0215080409040E1F700C05C
:1001000000000895CF93DF93CDB7DEB7E5970FB624
:10011000F894DEBF0FBECDBF87B3816087BB0E945E
:100120004F0085E3E0E0F1E0DE01119601900D92D1
:100130008A95E1F70E946800CE0101960E945B005B
:06014000F9CFF894FFCF97
:10014600457220646574206E6F65206772656E73F4
:10015600652070E52068766F72206C616E67652099
:100166006D656C64696E67656E206B616E2076E600
:0601760072653F0A000063
:00000001FF
