:100000000C9438000C9455000C9455000C94550039
:100010000C9455000C9455000C9455000C9455000C
:100020000C9455000C9455000C9455000C945500FC
:100030000C9455000C9455000C9455000C945500EC
:100040000C9455000C9455000C9455000C945201DE
:100050000C9455000C9467010C9455000C945500B9
:100060000C9455000C9455000C9455000C945500BC
:1000700011241FBECFEFD4E0DEBFCDBF11E0A0E062
:10008000B1E0E6EAF6E002C005900D92AC30B107AF
:10009000D9F721E0ACE0B1E001C01D92A832B2076F
:1000A000E1F70E94AE000C9451030C94000085B758
:1000B000806885BF80B7806280BF80B78F7E80BF39
:1000C00080B7877F80BF089540E012C0262F372F6A
:1000D000211558E1350758F0EFEFFFE1E81BF10972
:1000E000E217F30720F0F901E40FF11D90834F5F51
:1000F000481760F30895CF92DF92EF92FF92CF936B
:10010000DF93DA0190E021C0262F372F211548E137
:100110003407D0F00F2ECC24CA94FFE7DF2EEE2454
:10012000E394F12CF02DC81AD108E108F108C216A9
:10013000D30650F0492F50E0FD01E40FF51FE9010F
:10014000C40FD51F288120839F5F9817E8F2DF91A5
:10015000CF91FF90EF90DF90CF900895CF93DF93F2
:1001600000D0CDB7DEB70E94240178940E945700DA
:10017000F12C08E112E00E94A9016F2D702F812F50
:100180009FE00E946400AE014F5F5F4F6F2D702FA4
:10019000812F9FE00E947B00EECFFC0123819481A0
:1001A00081E0291380E00895FC0193819F5F8281A3
:1001B000981708F090E0248181E0921380E0089580
:1001C0001F93CF93DF93182FEB01CB010E94D40034
:1001D00081110FC0E881F9818B81E80FF11D108337
:1001E0008B818F5F8B839A81891728F01B8281E036
:1001F00003C080E001C081E0DF91CF911F9108959D
:100200000F931F93CF93DF938C01EB01CB010E94DF
:10021000CD00811111C0E881F9818C81E80FF11DB9
:100220008081F80180838C818F5F8C839A8189170C
:1002300028F01C8281E003C080E001C081E0DF91F2
:10024000CF911F910F91089510BC8FE189B988E972
:100250008AB986E880BD60E070E084E491E00E94A5
:10026000C2010895CF93C82F86E091E00E94D40088
:100270008111FACF66E071E08C2F0E94E0008AB114
:1002800080628AB9CF910895CF93C82F8A3019F42C
:100290008DE00E9432018C2F0E94320180E090E0BC
:1002A000CF9108951F920F920FB60F9211248F9342
:1002B0008CB180931D0181E080930C018AB1806232
:1002C0008AB98F910F900FBE0F901F9018951F92B3
:1002D0000F920FB60F9211242F933F934F935F937A
:1002E0006F937F938F939F93AF93BF93EF93FF93FE
:1002F000CF93DF931F92CDB7DEB780910C01882397
:1003000031F080911D018CB910920C010EC066E095
:1003100071E0CE0101960E940001882319F08981C5
:100320008CB903C08AB18F7D8AB90F90DF91CF91CC
:10033000FF91EF91BF91AF919F918F917F916F91BD
:100340005F914F913F912F910F900FBE0F901F9093
:100350001895B89903C087B3816087BB88B3816063
:1003600088BB83E294EF0197F1F700C0000098B3D7
:1003700081E0892788BB83E294EF0197F1F700C001
:10038000000008950F931F93CF93DF93009731F4EC
:100390006115710519F480E090E03AC08B01EC0121
:1003A0006EE070E081E090E00E940D02FC01892B7C
:1003B00091F380E883830115110571F0138702879B
:1003C00081E8838380911E0190911F01892B21F484
:1003D000F0931F01E0931E012097C9F0D187C087D9
:1003E0008381826083838091200190912101892BF8
:1003F00071F4F0932101E09320018091220190910A
:100400002301892B21F4F0932301E0932201CF01F2
:10041000DF91CF911F910F9108950F931F93CF9369
:10042000DF93869F8001879F100D969F100D1124EA
:10043000C8010E942902EC01009729F0A80160E0A0
:1004400070E00E944A03CE01DF91CF911F910F917E
:1004500008950F931F93CF93DF938230910510F48B
:1004600082E090E0E0912601F091270120E030E069
:10047000A0E0B0E0309719F14081518102811381F1
:1004800048175907C8F08417950769F4109731F099
:1004900012960C93129713961C9327C00093260173
:1004A0001093270122C02115310519F04217530777
:1004B00018F49A01BD01EF01DF01F801DBCF21152E
:1004C0003105F9F0281B390B2430310580F48A817D
:1004D0009B816115710521F0FB019383828304C028
:1004E0009093270180932601FE01329644C0FE01BD
:1004F000E20FF31F819391932250310939832883AE
:100500003AC02091240130912501232B41F4209100
:1005100002013091030130932501209324012091A1
:100520000001309101012115310541F42DB73EB78D
:100530004091040150910501241B350BE0912401E9
:10054000F0912501E217F307A0F42E1B3F0B2817AB
:10055000390778F0AC014E5F5F4F2417350748F03C
:100560004E0F5F1F50932501409324018193919377
:1005700002C0E0E0F0E0CF01DF91CF911F910F9139
:100580000895CF93DF93009709F481C0FC0132975F
:1005900013821282A0912601B0912701109781F455
:1005A00020813181820F931F2091240130912501F8
:1005B0002817390751F5F0932501E093240167C00E
:1005C000ED0120E030E0CE17DF0740F44A815B8187
:1005D0009E0141155105F1F0EA01F5CFD383C283A5
:1005E00040815181840F951FC817D90759F488811C
:1005F0009981840F951F0296918380838A819B81C4
:10060000938382832115310529F4F0932701E09328
:1006100026013DC0E901FB83EA8349915991C40F4A
:10062000D51FEC17FD0761F480819181840F951F20
:100630000296E90199838883828193819B838A83CF
:10064000E0E0F0E012968D919C911397009719F0DD
:10065000FD01DC01F7CF8D919C9111979D012E5FDB
:100660003F4F820F931F20912401309125012817BD
:10067000390769F4309729F4109227011092260166
:1006800002C013821282B0932501A0932401DF914E
:10069000CF910895DC0101C06D9341505040E0F7C7
:0606A0000895F894FFCF5D
:0C06A6000000280120000D0110000000E1
:00000001FF
