S01600004772757070655F32375F506F6E672E73726563E0
S11300000C9438000C94DA020C9455000C945500AE
S11300100C9455000C9455000C9455000C94190341
S11300200C9455000C9455000C9455000C945500F8
S11300300C9455000C9455000C9455000C945500E8
S11300400C9455000C9455000C9455000C94280104
S11300500C9455000C943D010C9455000C945500DF
S11300600C9455000C9455000C9455000C945500B8
S113007011241FBECFEFD4E0DEBFCDBF11E0A0E05E
S1130080B1E0E6E7F3E102C005900D92AA35B107AD
S1130090D9F721E0AAE5B1E001C01D92A638B20764
S11300A0E1F70E9464000C94B9090C94000085B730
S11300B0806885BF80B7806280BF80B78F7E80BF35
S11300C080B7877F80BF08958BE691E00E941D0270
S11300D00E941A0178940E9457000E947F01809127
S11300E07B011F928F938BE091E09F938F930E94EB
S11300F097058BE691E00E9435028BE691E00E9421
S113010089028BE691E00E94A702809379011F92F5
S11301108F9388E191E09F938F930E9497052FEF2F
S11301208FE791E0215080409040E1F700C000C08B
S11301300E9400038DB79EB708960FB6F8949EBF31
S11301400FBE8DBFCCCFFC012381948181E02913A4
S113015080E00895FC0193819F5F8281981708F0E5
S113016090E0248181E0921380E008951F93CF935F
S1130170DF93182FEB01CB010E94AA0081110FC05D
S1130180E881F9818B81E80FF11D10838B818F5FEA
S11301908B839A81891728F01B8281E003C080E059
S11301A001C081E0DF91CF911F9108950F931F93B8
S11301B0CF93DF938C01EB01CB010E94A30081114B
S11301C011C0E881F9818C81E80FF11D8081F8016B
S11301D080838C818F5F8C839A81891728F01C829D
S11301E081E003C080E001C081E0DF91CF911F91E5
S11301F00F910895CF93C82F86E091E00E94AA0042
S11302008111FACF66E071E08C2F0E94B6008AB1AA
S113021080628AB9CF910895CF93C82F8A3019F498
S11302208DE00E94FA008C2F0E94FA0080E090E09A
S1130230CF91089510BC8FE189B988E98AB986E81D
S113024080BD60E070E08CE091E00E944C05089570
S11302501F920F920FB60F9211248F938CB180933B
S11302607A0181E080935A018AB180628AB98F91C0
S11302700F900FBE0F901F9018951F920F920FB6FC
S11302800F9211242F933F934F935F936F937F9318
S11302908F939F93AF93BF93EF93FF93CF93DF938A
S11302A01F92CDB7DEB780915A01882331F0809137
S11302B07A018CB910925A010EC066E071E0CE0149
S11302C001960E94D600882319F089818CB903C055
S11302D08AB18F7D8AB90F90DF91CF91FF91EF9111
S11302E0BF91AF919F918F917F916F915F914F914A
S11302F03F912F910F900FBE0F901F90189581B3CF
S1130300806281BB81B3877F81BB82B3886082BBFB
S113031080E48FBD89E08EBD81E090E09BBD8ABD05
S113032086B18E7F86B908958370806880930010AB
S113033080E197E2A0E0B0E004C00197A109B1090F
S1130340A1F02899FACF40E157E260E070E005C0DF
S1130350415051096109710949F095B1892F8170A2
S113036090FFF6CF80910010089580E008958F9259
S11303709F92AF92BF92CF92DF92EF92FF920F9330
S11303801F93CF93DF936B01EA01790186179707D7
S11303900CF4CB01C817D9070CF4CE01BC016C19BD
S11303A07D09072E000C880B990B0E9453044B0106
S11303B05C01CC19DD09BE01DD0F880B990B0E948D
S11303C053049B01AC01C501B4010E94A9034B0174
S11303D05C01B8016E197F09072E000C880B990B7C
S11303E00E945304A50194010E94DF044B015C01A7
S11303F0B701FF0C880B990B0E945304A5019401CB
S11304000E943D030E941B04CB016536710514F064
S113041084E690E08C392FEF920714F48CE99FEF77
S1130420DF91CF911F910F91FF90EF90DF90CF90CC
S1130430BF90AF909F908F900895FC011486108216
S113044011821282138215821482178216821186F7
S113045010861386128685B7816085BF85B7826052
S113046085BF8BB780648BBF0895CF92DF92EF92E4
S1130470FF920F931F93CF93DF93EC0180E00E94D0
S113048094018A8381E00E9494018B8382E00E941C
S11304909401888383E00E949401E82E8983C880B4
S11304A0D12C04E610E02CE93FEF4FEF50E060E47C
S11304B070E0C6010E94B7019D838C83F12C2CE966
S11304C03FEF42EF50E06DE470E0C7010E94B701D6
S11304D09F838E832CE93FEF4FEF50E060E070E0A4
S11304E0C6010E94B701998788872CE93FEF4FEF37
S11304F050E060E070E0C7010E94B7019B878A87E3
S1130500DF91CF911F910F91FF90EF90DF90CF90EB
S11305100895FC019081818125812F9324812F935B
S113052027812F9326812F931F929F931F928F933E
S113053087E291E09F938F930E9497058DB79EB7B2
S11305400A960FB6F8949EBF0FBE8DBF0895FC01A6
S11305504481558126813781CA01552324F4882793
S11305609927841B950B8135910554F4B9013323E4
S113057024F466277727621B730B61357105A4F099
S1130580B901332324F466277727621B730B68179A
S113059079072CF4141615064CF482E0089512160B
S11305A0130634F484E0089580E0089581E008950A
S11305B083E008951F920F920FB60F9211248F9328
S11305C0EF93FF938BB78F7B8BBF80917B018F5F02
S11305D080937B011092890010928800EDE7F0E08F
S11305E0808180618083EAE8F0E080818360808399
S11305F0FF91EF918F910F900FBE0F901F90189560
S1130600B89903C087B3816087BB88B3816088BB16
S113061083E294EF0197F1F700C0000098B381E002
S1130620892788BB83E294EF0197F1F700C00000AB
S113063008951F920F920FB60F9211248F93EF9388
S1130640FF93EDE7F0E080818F7E80838AB780643A
S11306508ABF8BB780648BBFEAE8F0E080818D7F2E
S1130660808380818E7F8083FF91EF918F910F90A3
S11306700FBE0F901F9018955058BB27AA270E94B1
S113068054030C94A5040E94970438F00E949E041D
S113069020F039F49F3F19F426F40C9494040EF4DA
S11306A0E095E7FB0C948E04E92F0E94B60458F3FE
S11306B0BA17620773078407950720F079F4A6F543
S11306C00C94D8040EF4E0950B2EBA2FA02D0B0138
S11306D0B90190010C01CA01A0011124FF27591B83
S11306E099F0593F50F4503E68F11A16F040A22F89
S11306F0232F342F4427585FF3CF469537952795FA
S1130700A795F0405395C9F77EF41F16BA0B620BF8
S1130710730B840BBAF09150A1F0FF0FBB1F661F3F
S1130720771F881FC2F70EC0BA0F621F731F841F82
S113073048F4879577956795B795F7959E3F08F0A8
S1130740B0CF9395880F08F09927EE0F979587956A
S113075008950E94BD030C94A5040E949E0458F0C1
S11307600E94970440F029F45F3F29F00C948E0412
S113077051110C94D9040C9494040E94B60468F3A7
S11307809923B1F3552391F3951B550BBB27AA2746
S113079062177307840738F09F5F5F4F220F331F80
S11307A0441FAA1FA9F335D00E2E3AF0E0E832D048
S11307B091505040E695001CCAF72BD0FE2F29D04B
S11307C0660F771F881FBB1F261737074807AB071D
S11307D0B0E809F0BB0B802DBF01FF2793585F4F92
S11307E03AF09E3F510578F00C948E040C94D90491
S11307F05F3FE4F3983ED4F3869577956795B79574
S1130800F7959F5FC9F7880F911D9695879597F97E
S11308100895E1E0660F771F881FBB1F62177307F7
S11308208407BA0720F0621B730B840BBA0BEE1F0C
S113083088F7E09508950E9422046894B1110C94FD
S1130840D90408950E94BE0488F09F5798F0B92FE8
S11308509927B751B0F0E1F0660F771F881F991FF1
S11308601AF0BA95C9F714C0B13091F00E94D804B7
S1130870B1E008950C94D804672F782F8827B85FC7
S113088039F0B93FCCF3869577956795B395D9F749
S11308903EF490958095709561957F4F8F4F9F4F53
S11308A00895E89409C097FB3EF49095809570955F
S11308B061957F4F8F4F9F4F9923A9F0F92F96E9A8
S11308C0BB279395F695879577956795B795F1111D
S11308D0F8CFFAF4BB0F11F460FF1BC06F5F7F4FBA
S11308E08F4F9F4F16C0882311F096E911C07723CC
S11308F021F09EE8872F762F05C0662371F096E8D5
S1130900862F70E060E02AF09A95660F771F881FA3
S1130910DAF7880F9695879597F9089597F99F6761
S113092080E870E060E008959FEF80EC0895002473
S11309300A941616170618060906089500240A9440
S113094012161306140605060895092E0394000CC6
S113095011F4882352F0BB0F40F4BF2B11F460FF55
S113096004C06F5F7F4F8F4F9F4F089557FD90587E
S1130970440F551F59F05F3F71F04795880F97FB5F
S1130980991F61F09F3F79F0879508951216130619
S11309901406551FF2CF4695F1DF08C01616170648
S11309A01806991FF1CF869571056105089408957D
S11309B0E894BB2766277727CB0197F908950E940F
S11309C0F2040C94A5040E94970438F00E949E043B
S11309D020F0952311F00C948E040C9494041124AB
S11309E00C94D9040E94B60470F3959FC1F3950F3B
S11309F050E0551F629FF001729FBB27F00DB11D9F
S1130A00639FAA27F00DB11DAA1F649F6627B00D2E
S1130A10A11D661F829F2227B00DA11D621F739F17
S1130A20B00DA11D621F839FA00D611D221F749F25
S1130A303327A00D611D231F849F600D211D822F6C
S1130A40762F6A2F11249F5750409AF0F1F0882393
S1130A504AF0EE0FFF1FBB1F661F771F881F9150C0
S1130A605040A9F79E3F510580F00C948E040C94DD
S1130A70D9045F3FE4F3983ED4F386957795679560
S1130A80B795F795E7959F5FC1F7FE2B880F911DEA
S1130A909695879597F908950F931F93CF93DF93B6
S1130AA0009731F46115710519F480E090E03AC0C3
S1130AB08B01EC016EE070E081E090E00E948E0713
S1130AC0FC01892B91F380E883830115110571F0F2
S1130AD01387028781E8838380917C0190917D0153
S1130AE0892B21F4F0937D01E0937C012097C9F0D8
S1130AF0D187C08783818260838380917E019091B6
S1130B007F01892B71F4F0937F01E0937E01809142
S1130B10800190918101892B21F4F0938101E0936C
S1130B208001CF01DF91CF911F910F910895A0E033
S1130B30B0E0EDE9F5E00C949209AE014B5F5F4F34
S1130B40FA0161917191AF0180917E0190917F01D1
S1130B500E94AD05E2E00C94AE09ABE0B0E0E3EB3B
S1130B60F5E00C9482096C017B018A01FC01178277
S1130B701682838181FFCCC1CE0101963C01F6012E
S1130B809381F70193FD859193FF81917F018823E0
S1130B9009F4BAC1853239F493FD859193FF8191AB
S1130BA07F01853229F4B60190E00E94E808E7CF7E
S1130BB0912C212C312CFFE1F315D8F08B3279F0F4
S1130BC038F4803279F08332A1F4232D20611DC0E2
S1130BD08D3261F0803369F4232D216016C0832D9A
S1130BE08260382EE32DE4603E2E2AC0F32DF86097
S1130BF01DC037FC2DC020ED280F2A3040F08E3266
S1130C00B9F436FC81C1232D2064322E19C036FE7E
S1130C1006C08AE0989E200D1124922E11C0EAE0AD
S1130C202E9E200D1124222EF32DF0623F2E08C09B
S1130C308C3621F4832D8068382E02C0883641F426
S1130C40F70193FD859193FF81917F018111B3CFCA
S1130C50982F9F7D9554933028F40C5F1F4F9FE38A
S1130C6099830DC0833631F0833771F0833509F0F1
S1130C7059C021C0F801808189830E5F1F4F8824E9
S1130C808394912C530113C02801F2E04F0E511CA0
S1130C90F801A080B18036FE03C0692D70E002C067
S1130CA06FEF7FEFC5010E94DD084C018201F32D37
S1130CB0FF773F2E16C0280122E0420E511CF80196
S1130CC0A080B18036FE03C0692D70E002C06FEFD2
S1130CD07FEFC5010E94CB084C01F32DF0683F2E35
S1130CE0820133FC1BC0822D90E088169906B0F473
S1130CF0B60180E290E00E94E8082A94F4CFF5015E
S1130D0037FC859137FE81915F01B60190E00E9426
S1130D10E80821102A9421E0821A91088114910490
S1130D2071F7E8C0843611F0893641F5F80137FED1
S1130D3007C060817181828193810C5F1F4F08C05D
S1130D4060817181072E000C880B990B0E5F1F4F79
S1130D50F32DFF763F2E97FF09C0909580957095EF
S1130D6061957F4F8F4F9F4FF0683F2E2AE030E010
S1130D70A3010E942409882E861845C0853731F4C2
S1130D80232D2F7EB22E2AE030E025C0932D997FAB
S1130D90B92E8F36C1F018F4883579F0B5C0803794
S1130DA019F0883721F0B0C0E92FE061BE2EB4FEFF
S1130DB00DC0FB2DF460BF2E09C034FE0AC0292FDC
S1130DC02660B22E06C028E030E005C020E130E005
S1130DD002C020E132E0F801B7FE07C060817181F2
S1130DE0828193810C5F1F4F06C06081718180E016
S1130DF090E00E5F1F4FA3010E942409882E8618DD
S1130E00FB2DFF773F2E36FE0DC0232D2E7FA22E05
S1130E10891458F434FE0BC032FC09C0832D8E7E35
S1130E20A82E05C0B82CA32C03C0B82C01C0B92C23
S1130E30A4FE0FC0FE01E80DF11D8081803321F472
S1130E409A2D997EA92E09C0A2FE06C0B394B3942C
S1130E5004C08A2D867809F0B394A3FC11C0A0FEC7
S1130E6006C0B21488F4280C922C9B180EC0B2143D
S1130E7060F4B60180E290E00E94E808B394F7CFF2
S1130E80B21418F42B1802C0982C212CA4FE10C004
S1130E90B60180E390E00E94E808A2FE17C0A1FC1E
S1130EA003C088E790E002C088E590E0B6010CC07A
S1130EB08A2D867859F0A1FE02C08BE201C080E23F
S1130EC0A7FC8DE2B60190E00E94E808891438F48A
S1130ED0B60180E390E00E94E8089A94F7CF8A94E0
S1130EE0F301E80DF11D8081B60190E00E94E8084D
S1130EF08110F5CF222009F442CEB60180E290E0C1
S1130F000E94E8082A94F6CFF6018681978102C0F0
S1130F108FEF9FEF2B96E2E10C949E090F931F93A2
S1130F20CF93DF93869F8001879F100D969F100DAE
S1130F301124C8010E94AA07EC01009729F0A80116
S1130F4060E070E00E94D608CE01DF91CF911F913E
S1130F500F9108950F931F93CF93DF9382309105E0
S1130F6010F482E090E0E0918401F091850120E0AA
S1130F7030E0A0E0B0E0309719F140815181028166
S1130F80138148175907C8F08417950769F4109717
S1130F9031F012960C93129713961C9327C000936A
S1130FA084011093850122C02115310519F04217DF
S1130FB0530718F49A01BD01EF01DF01F801DBCFFB
S1130FC021153105F9F0281B390B2430310580F443
S1130FD08A819B816115710521F0FB0193838283D2
S1130FE004C09093850180938401FE01329644C02D
S1130FF0FE01E20FF31F819391932250310939834B
S113100028833AC02091820130918301232B41F43B
S113101020910201309103013093830120938201D6
S113102020910001309101012115310541F42DB7C2
S11310303EB74091040150910501241B350BE0910A
S11310408201F0918301E217F307A0F42E1B3F0BFA
S11310502817390778F0AC014E5F5F4F2417350726
S113106048F04E0F5F1F5093830140938201819398
S1131070919302C0E0E0F0E0CF01DF91CF911F91A6
S11310800F910895CF93DF93009709F481C0FC0179
S1131090329713821282A0918401B0918501109736
S11310A081F420813181820F931F2091820130913C
S11310B083012817390751F5F0938301E0938201E6
S11310C067C0ED0120E030E0CE17DF0740F44A812D
S11310D05B819E0141155105F1F0EA01F5CFD383FF
S11310E0C28340815181840F951FC817D90759F4D1
S11310F088819981840F951F0296918380838A81C8
S11311009B81938382832115310529F4F093850112
S1131110E09384013DC0E901FB83EA83499159913D
S1131120C40FD51FEC17FD0761F480819181840FF2
S1131130951F0296E90199838883828193819B8319
S11311408A83E0E0F0E012968D919C9113970097CA
S113115019F0FD01DC01F7CF8D919C9111979D0150
S11311602E5F3F4F820F931F2091820130918301A4
S11311702817390769F4309729F4109285011092E1
S1131180840102C013821282B0938301A09382016E
S1131190DF91CF910895FC010590615070400110DA
S11311A0D8F7809590958E0F9F1F0895DC0101C09C
S11311B06D9341505040E0F70895FC016150704038
S11311C001900110D8F7809590958E0F9F1F089578
S11311D00F931F93CF93DF93FB01238121FD03C062
S11311E08FEF9FEF2CC022FF16C0468157812481C8
S11311F035814217530744F4A081B1819D012F5FCB
S11312003F4F318320838C93268137812F5F3F4F5B
S11312103783268314C08B01EC01FB010084F18524
S1131220E02D0995892BE1F6D80116968D919C91B4
S11312301797019617969C938E931697CE01DF917C
S1131240CF911F910F910895FA01AA27283051F1E7
S1131250203181F1E8946F936E7F6E5F7F4F8F4FE3
S11312609F4FAF4FB1E03ED0B4E03CD0670F781F42
S1131270891F9A1FA11D680F791F8A1F911DA11D27
S11312806A0F711D811D911DA11D20D009F4689460
S11312903F912AE0269F11243019305D3193DEF608
S11312A0CF010895462F4770405D4193B3E00FD0BE
S11312B0C9F7F6CF462F4F70405D4A3318F0495DA9
S11312C031FD4052419302D0A9F7EACFB4E0A6958C
S11312D09795879577956795BA95C9F700976105AE
S11312E0710508959B01AC010A2E06945795479504
S11312F037952795BA95C9F7620F731F841F951FF9
S1131300A01D08952F923F924F925F926F927F9209
S11313108F929F92AF92BF92CF92DF92EF92FF9201
S11313200F931F93CF93DF93CDB7DEB7CA1BDB0BAD
S11313300FB6F894DEBF0FBECDBF09942A88398852
S113134048885F846E847D848C849B84AA84B98459
S1131350C884DF80EE80FD800C811B81AA81B98165
S1131360CE0FD11D0FB6F894DEBF0FBECDBFED0179
S10913700895F894FFCF7C
S11313760000860120005B01100000425554544FC2
S11313864E203A2025640A00444952454354494FA5
S11313964E3A2025640A0056616C75654368303AF6
S11313A62025642C2056616C75654368313A2025E6
S11313B66420792D617869733A20256420782D613B
S10D13C67869733A2025640A0000D8
S9030000FC
