S01600004772757070655F32375F506F6E672E73726563E0
S11300000C9438000C9455000C9455000C94550035
S11300100C9455000C9455000C9455000C94550008
S11300200C9455000C9455000C9455000C945500F8
S11300300C9455000C9455000C9455000C945500E8
S11300400C9455000C9455000C9455000C943001FC
S11300500C9455000C9445010C9455000C945500D7
S11300600C9455000C9455000C9455000C945500B8
S113007011241FBECFEFD4E0DEBFCDBF11E0A0E05E
S1130080B1E0EEE5F1E102C005900D92AE33B107A7
S1130090D9F721E0AEE3B1E001C01D92AA35B20761
S11300A0E1F70E9464000C94AD080C94000085B73D
S11300B0806885BF80B7806280BF80B78F7E80BF35
S11300C080B7877F80BF089560E070E080E00E9481
S11300D016020E94020178940E9457000E94870130
S11300E080E00E949601D82F81E00E949601C82FDB
S11300F082E00E949601C82ED12C83E00E949601D2
S1130100E82EF12C04E610E02CE93FEF4FEF50E02D
S113011060E470E0C6010E94A1016C012CE93FEF8C
S113012042EF50E06DE470E0C7010E94A1016C2F22
S113013070E09C01A6018D2F90E00E94FF012FEF3B
S11301408FE791E0215080409040E1F700C000C06B
S11301500E941702C5CFFC012381948181E02913F9
S113016080E00895FC0193819F5F8281981708F0D5
S113017090E0248181E0921380E008951F93CF934F
S1130180DF93182FEB01CB010E94B20081110FC045
S1130190E881F9818B81E80FF11D10838B818F5FDA
S11301A08B839A81891728F01B8281E003C080E049
S11301B001C081E0DF91CF911F9108950F931F93A8
S11301C0CF93DF938C01EB01CB010E94AB00811133
S11301D011C0E881F9818C81E80FF11D8081F8015B
S11301E080838C818F5F8C839A81891728F01C828D
S11301F081E003C080E001C081E0DF91CF911F91D5
S11302000F91089510BC8FE189B988E98AB986E80D
S113021080BD60E070E082E291E00E9440040895B5
S1130220CF93C82F86E091E00E94B2008111FACFEB
S113023066E071E08C2F0E94BE008AB180628AB9A8
S1130240CF910895CF93C82F8A3019F48DE00E947E
S113025010018C2F0E94100180E090E0CF9108954E
S11302601F920F920FB60F9211248F938CB180932B
S11302704F0181E080933E018AB180628AB98F91F7
S11302800F900FBE0F901F9018951F920F920FB6EC
S11302900F9211242F933F934F935F936F937F9308
S11302A08F939F93AF93BF93EF93FF93CF93DF937A
S11302B01F92CDB7DEB780913E01882331F0809143
S11302C04F018CB910923E010EC066E071E0CE0180
S11302D001960E94DE00882319F089818CB903C03D
S11302E08AB18F7D8AB90F90DF91CF91FF91EF9101
S11302F0BF91AF919F918F917F916F915F914F913A
S11303003F912F910F900FBE0F901F90189581B3BE
S1130310806281BB80E48FBD89E08EBD81E090E086
S11303209BBD8ABD86B18E7F86B90895837080682F
S1130330809300102899FECF289BFECF8091001057
S113034008958F929F92AF92BF92CF92DF92EF92D5
S1130350FF920F931F93CF93DF936B017A01E9010F
S1130360861B970BBC01990F880B990B0E944703BE
S11303704B015C01B7016C197D09072E000C880B39
S1130380990B0E9447039B01AC01C501B4010E9473
S11303909D026B017C01B8016C1B7D0B072E000CC8
S11303A0880B990B0E944703A70196010E94D3036F
S11303B06B017C01BE01DD0F880B990B0E94470382
S11303C0A70196010E9431020E940F03CB016536FA
S11303D0710514F084E690E08C392FEF920714F441
S11303E08CE99FEFDF91CF911F910F91FF90EF90D8
S11303F0DF90CF90BF90AF909F908F9008955F93C0
S11304004F933F932F937F936F939F938F938BE09F
S113041091E09F938F930E948B048DB79EB70A96A9
S11304200FB6F8949EBF0FBE8DBF08950895B89976
S113043003C087B3816087BB88B3816088BB83E2D4
S113044094EF0197F1F700C0000098B381E0892789
S113045088BB83E294EF0197F1F700C00000089590
S11304605058BB27AA270E9448020C9499030E9463
S11304708B0338F00E94920320F039F49F3F19F463
S113048026F40C9488030EF4E095E7FB0C948203A5
S1130490E92F0E94AA0358F3BA1762077307840767
S11304A0950720F079F4A6F50C94CC030EF4E095AE
S11304B00B2EBA2FA02D0B01B90190010C01CA011A
S11304C0A0011124FF27591B99F0593F50F4503EC5
S11304D068F11A16F040A22F232F342F4427585FB7
S11304E0F3CF469537952795A795F0405395C9F7CF
S11304F07EF41F16BA0B620B730B840BBAF0915087
S1130500A1F0FF0FBB1F661F771F881FC2F70EC025
S1130510BA0F621F731F841F48F4879577956795F8
S1130520B795F7959E3F08F0B0CF9395880F08F0E4
S11305309927EE0F9795879508950E94B1020C9420
S113054099030E94920358F00E948B0340F029F40F
S11305505F3F29F00C94820351110C94CD030C9449
S113056088030E94AA0368F39923B1F3552391F3F6
S1130570951B550BBB27AA2762177307840738F00E
S11305809F5F5F4F220F331F441FAA1FA9F335D06B
S11305900E2E3AF0E0E832D091505040E695001C1F
S11305A0CAF72BD0FE2F29D0660F771F881FBB1FD9
S11305B0261737074807AB07B0E809F0BB0B802DB7
S11305C0BF01FF2793585F4F3AF09E3F510578F0E3
S11305D00C9482030C94CD035F3FE4F3983ED4F370
S11305E0869577956795B795F7959F5FC9F7880FB7
S11305F0911D9695879597F90895E1E0660F771F09
S1130600881FBB1F621773078407BA0720F0621B99
S1130610730B840BBA0BEE1F88F7E09508950E94C4
S113062016036894B1110C94CD0308950E94B2038B
S113063088F09F5798F0B92F9927B751B0F0E1F09F
S1130640660F771F881F991F1AF0BA95C9F714C04F
S1130650B13091F00E94CC03B1E008950C94CC0326
S1130660672F782F8827B85F39F0B93FCCF3869588
S113067077956795B395D9F73EF4909580957095E5
S113068061957F4F8F4F9F4F0895E89409C097FB62
S11306903EF490958095709561957F4F8F4F9F4F55
S11306A09923A9F0F92F96E9BB279395F695879599
S11306B077956795B795F111F8CFFAF4BB0F11F45C
S11306C060FF1BC06F5F7F4F8F4F9F4F16C0882303
S11306D011F096E911C0772321F09EE8872F762F39
S11306E005C0662371F096E8862F70E060E02AF07A
S11306F09A95660F771F881FDAF7880F9695879566
S113070097F9089597F99F6780E870E060E008958D
S11307109FEF80EC089500240A9416161706180615
S11307200906089500240A941216130614060506F1
S11307300895092E0394000C11F4882352F0BB0F82
S113074040F4BF2B11F460FF04C06F5F7F4F8F4FE5
S11307509F4F089557FD9058440F551F59F05F3F20
S113076071F04795880F97FB991F61F09F3F79F0CF
S113077087950895121613061406551FF2CF469551
S1130780F1DF08C0161617061806991FF1CF8695D3
S11307907105610508940895E894BB2766277727B7
S11307A0CB0197F908950E94E6030C9499030E94E3
S11307B08B0338F00E94920320F0952311F00C94DF
S11307C082030C94880311240C94CD030E94AA0381
S11307D070F3959FC1F3950F50E0551F629FF00190
S11307E0729FBB27F00DB11D639FAA27F00DB11DA9
S11307F0AA1F649F6627B00DA11D661F829F222732
S1130800B00DA11D621F739FB00DA11D621F839FB8
S1130810A00D611D221F749F3327A00D611D231F8E
S1130820849F600D211D822F762F6A2F11249F57DC
S113083050409AF0F1F088234AF0EE0FFF1FBB1FDF
S1130840661F771F881F91505040A9F79E3F51059E
S113085080F00C9482030C94CD035F3FE4F3983E44
S1130860D4F3869577956795B795F795E7959F5F48
S1130870C1F7FE2B880F911D9695879597F90895DA
S11308800F931F93CF93DF93009731F46115710594
S113089019F480E090E03AC08B01EC016EE070E066
S11308A081E090E00E948206FC01892B91F380E8AC
S11308B083830115110571F01387028781E883830F
S11308C08091500190915101892B21F4F0935101B1
S11308D0E09350012097C9F0D187C087838182605B
S11308E083838091520190915301892B71F4F09389
S11308F05301E09352018091540190915501892B49
S113090021F4F0935501E0935401CF01DF91CF918D
S11309101F910F910895A0E0B0E0E1E9F4E00C9498
S11309208608AE014B5F5F4FFA0161917191AF018F
S113093080915201909153010E94A104E2E00C9431
S1130940A208ABE0B0E0E7EAF4E00C9476086C01AE
S11309507B018A01FC0117821682838181FFCCC14D
S1130960CE0101963C01F6019381F70193FD859137
S113097093FF81917F01882309F4BAC1853239F448
S113098093FD859193FF81917F01853229F4B6010E
S113099090E00E94DC07E7CF912C212C312CFFE161
S11309A0F315D8F08B3279F038F4803279F0833251
S11309B0A1F4232D20611DC08D3261F0803369F4D0
S11309C0232D216016C0832D8260382EE32DE46030
S11309D03E2E2AC0F32DF8601DC037FC2DC020ED3B
S11309E0280F2A3040F08E32B9F436FC81C1232D11
S11309F02064322E19C036FE06C08AE0989E200D6F
S1130A001124922E11C0EAE02E9E200D1124222ED4
S1130A10F32DF0623F2E08C08C3621F4832D8068BC
S1130A20382E02C0883641F4F70193FD859193FF77
S1130A3081917F018111B3CF982F9F7D955493307D
S1130A4028F40C5F1F4F9FE399830DC0833631F068
S1130A50833771F0833509F059C021C0F8018081D2
S1130A6089830E5F1F4F88248394912C530113C0F4
S1130A702801F2E04F0E511CF801A080B18036FE2F
S1130A8003C0692D70E002C06FEF7FEFC5010E94C3
S1130A90D1074C018201F32DFF773F2E16C02801A8
S1130AA022E0420E511CF801A080B18036FE03C042
S1130AB0692D70E002C06FEF7FEFC5010E94BF0790
S1130AC04C01F32DF0683F2E820133FC1BC0822DB4
S1130AD090E088169906B0F4B60180E290E00E9496
S1130AE0DC072A94F4CFF50137FC859137FE819118
S1130AF05F01B60190E00E94DC0721102A9421E0F6
S1130B00821A91088114910471F7E8C0843611F0B7
S1130B10893641F5F80137FE07C060817181828111
S1130B2093810C5F1F4F08C060817181072E000CF8
S1130B30880B990B0E5F1F4FF32DFF763F2E97FF07
S1130B4009C090958095709561957F4F8F4F9F4F09
S1130B50F0683F2E2AE030E0A3010E941808882E96
S1130B60861845C0853731F4232D2F7EB22E2AE016
S1130B7030E025C0932D997FB92E8F36C1F018F43B
S1130B80883579F0B5C0803719F0883721F0B0C0C6
S1130B90E92FE061BE2EB4FE0DC0FB2DF460BF2E24
S1130BA009C034FE0AC0292F2660B22E06C028E0F0
S1130BB030E005C020E130E002C020E132E0F8017D
S1130BC0B7FE07C060817181828193810C5F1F4FE2
S1130BD006C06081718180E090E00E5F1F4FA30129
S1130BE00E941808882E8618FB2DFF773F2E36FEAC
S1130BF00DC0232D2E7FA22E891458F434FE0BC071
S1130C0032FC09C0832D8E7EA82E05C0B82CA32CDF
S1130C1003C0B82C01C0B92CA4FE0FC0FE01E80D1E
S1130C20F11D8081803321F49A2D997EA92E09C06B
S1130C30A2FE06C0B394B39404C08A2D867809F04A
S1130C40B394A3FC11C0A0FE06C0B21488F4280C0F
S1130C50922C9B180EC0B21460F4B60180E290E0AE
S1130C600E94DC07B394F7CFB21418F42B1802C017
S1130C70982C212CA4FE10C0B60180E390E00E94C1
S1130C80DC07A2FE17C0A1FC03C088E790E002C005
S1130C9088E590E0B6010CC08A2D867859F0A1FE53
S1130CA002C08BE201C080E2A7FC8DE2B60190E0B5
S1130CB00E94DC07891438F4B60180E390E00E94B6
S1130CC0DC079A94F7CF8A94F301E80DF11D808133
S1130CD0B60190E00E94DC078110F5CF222009F4D0
S1130CE042CEB60180E290E00E94DC072A94F6CF5F
S1130CF0F6018681978102C08FEF9FEF2B96E2E188
S1130D000C9492080F931F93CF93DF93869F8001D7
S1130D10879F100D969F100D1124C8010E949E06F6
S1130D20EC01009729F0A80160E070E00E94CA0776
S1130D30CE01DF91CF911F910F9108950F931F93CF
S1130D40CF93DF938230910510F482E090E0E0913C
S1130D505801F091590120E030E0A0E0B0E0309774
S1130D6019F1408151810281138148175907C8F054
S1130D708417950769F4109731F012960C93129723
S1130D8013961C9327C0009358011093590122C055
S1130D902115310519F04217530718F49A01BD01C2
S1130DA0EF01DF01F801DBCF21153105F9F0281B34
S1130DB0390B2430310580F48A819B8161157105DA
S1130DC021F0FB019383828304C0909359018093A3
S1130DD05801FE01329644C0FE01E20FF31F8193D5
S1130DE0919322503109398328833AC020915601C6
S1130DF030915701232B41F42091020130910301DA
S1130E003093570120935601209100013091010144
S1130E102115310541F42DB73EB74091040150919D
S1130E200501241B350BE0915601F0915701E2179F
S1130E30F307A0F42E1B3F0B2817390778F0AC01F9
S1130E404E5F5F4F2417350748F04E0F5F1F5093D6
S1130E505701409356018193919302C0E0E0F0E082
S1130E60CF01DF91CF911F910F910895CF93DF931D
S1130E70009709F481C0FC01329713821282A09179
S1130E805801B0915901109781F420813181820F6A
S1130E90931F20915601309157012817390751F5B6
S1130EA0F0935701E093560167C0ED0120E030E074
S1130EB0CE17DF0740F44A815B819E01411551053D
S1130EC0F1F0EA01F5CFD383C28340815181840FCD
S1130ED0951FC817D90759F488819981840F951FE4
S1130EE00296918380838A819B81938382832115D7
S1130EF0310529F4F0935901E09358013DC0E9010B
S1130F00FB83EA8349915991C40FD51FEC17FD0760
S1130F1061F480819181840F951F0296E901998380
S1130F208883828193819B838A83E0E0F0E0129638
S1130F308D919C911397009719F0FD01DC01F7CF77
S1130F408D919C9111979D012E5F3F4F820F931FAE
S1130F5020915601309157012817390769F43097C9
S1130F6029F4109259011092580102C0138212827E
S1130F70B0935701A0935601DF91CF910895FC01DE
S1130F800590615070400110D8F7809590958E0FB0
S1130F909F1F0895DC0101C06D9341505040E0F75C
S1130FA00895FC016150704001900110D8F78095BC
S1130FB090958E0F9F1F08950F931F93CF93DF93E8
S1130FC0FB01238121FD03C08FEF9FEF2CC022FF83
S1130FD016C046815781248135814217530744F452
S1130FE0A081B1819D012F5F3F4F318320838C937A
S1130FF0268137812F5F3F4F3783268314C08B01AF
S1131000EC01FB010084F185E02D0995892BE1F6C3
S1131010D80116968D919C911797019617969C93DB
S11310208E931697CE01DF91CF911F910F91089562
S1131030FA01AA27283051F1203181F1E8946F9305
S11310406E7F6E5F7F4F8F4F9F4FAF4FB1E03ED0AB
S1131050B4E03CD0670F781F891F9A1FA11D680F49
S1131060791F8A1F911DA11D6A0F711D811D911D7C
S1131070A11D20D009F468943F912AE0269F1124F1
S11310803019305D3193DEF6CF010895462F477055
S1131090405D4193B3E00FD0C9F7F6CF462F4F70B0
S11310A0405D4A3318F0495D31FD4052419302D00E
S11310B0A9F7EACFB4E0A6959795879577956795B4
S11310C0BA95C9F700976105710508959B01AC01B4
S11310D00A2E06945795479537952795BA95C9F7DB
S11310E0620F731F841F951FA01D08952F923F92B6
S11310F04F925F926F927F928F929F92AF92BF9224
S1131100CF92DF92EF92FF920F931F93CF93DF93CF
S1131110CDB7DEB7CA1BDB0B0FB6F894DEBF0FBE2C
S1131120CDBF09942A88398848885F846E847D8479
S11311308C849B84AA84B984C884DF80EE80FD807B
S11311400C811B81AA81B981CE0FD11D0FB6F894F1
S1111150DEBF0FBECDBFED010895F894FFCFB2
S113115E00005A0120003F0110000056616C7565B5
S113116E4368303A2025642C2056616C75654368BB
S113117E313A20256420792D617869733A202564EB
S111118E20782D617869733A2025640A0000E8
S9030000FC
