:100000000C9438000C944D000C944D000C944D0051
:100010000C944D000C944D000C944D000C944D002C
:100020000C944D000C944D000C944D000C944D001C
:100030000C944D000C944D000C944D000C944D000C
:100040000C944D000C944D000C944D000C944D00FC
:100050000C944D000C944D000C944D000C944D00EC
:100060000C944D000C944D000C944D000C944D00DC
:1000700011241FBECFEFD4E0DEBFCDBF11E0A0E062
:10008000B1E0E2E5F1E002C005900D92A831B107C0
:10009000D9F70E9469000C94A7000C94000088B363
:1000A000816088BB2FEF8FEB93E021508040904020
:1000B000E1F700C0000098B381E0892788BB2FEFEB
:1000C0008FEB93E0215080409040E1F700C00000AA
:1000D0000895CF93DF93CDB7DEB768970FB6F89446
:1000E000DEBF0FBECDBF87B3816087BB0E948A0091
:1000F00088E1E0E0F1E0DE01119601900D928A9531
:10010000E1F70E944F000E949200CE0101960E94EA
:100110009A00F7CF10BC8FE189B988E18AB98EE8DF
:1001200080BD08955F9BFECF8CB108955D9BFECF8F
:100130008CB90895CF93DF93EC0103C021960E9400
:10014000960088818111FACFDF91CF910895F894BC
:02015000FFCFDF
:10015200444154412066756E6B6572206672656D0E
:0801620064656C65733F0A003F
:00000001FF
