:100000000C9438000C944D000C944D000C944D0051
:100010000C944D000C944D000C944D000C944D002C
:100020000C944D000C944D000C944D000C944D001C
:100030000C944D000C944D000C944D000C944D000C
:100040000C944D000C944D000C944D000C944D00FC
:100050000C944D000C944D000C944D000C944D00EC
:100060000C944D000C944D000C944D000C944D00DC
:1000700011241FBECFEFD4E0DEBFCDBF11E0A0E062
:10008000B1E0EEE0F1E002C005900D92AA30B107B8
:10009000D9F70E9468000C9485000C94000010BCF5
:1000A0008FE189B988E18AB986E080BD08955D9BBA
:1000B000FECF8CB90895CF93DF93EC0103C0219656
:1000C0000E94570088818111FACFDF91CF91089566
:1000D000CF93DF93CDB7DEB72A970FB6F894DEBF84
:1000E0000FBECDBF87B3816087BB0E944F008AE0FF
:1000F000E0E0F1E0DE01119601900D928A95E1F7C2
:0E010000CE0101960E945B00FBCFF894FFCF6A
:0A010E0044617461576F686F0A00C6
:00000001FF
