:100000000C9438000C9455000C9455000C94550039
:100010000C9455000C9455000C9455000C9455000C
:100020000C9455000C9455000C9455000C945500FC
:100030000C9455000C9455000C9455000C945500EC
:100040000C9455000C9455000C9455000C94E6004B
:100050000C9455000C94FB000C9455000C94550026
:100060000C9455000C9455000C9455000C945500BC
:1000700011241FBECFEFD4E0DEBFCDBF11E0A0E062
:10008000B1E0EEE2F6E002C005900D92A831B107B2
:10009000D9F721E0A8E1B1E001C01D92A433B20775
:1000A000E1F70E9457000C9415030C9400000E9485
:1000B000B80078940E943D018BE091E00E94A1017C
:1000C000F9CFFC012381948181E0291380E0089518
:1000D000FC0193819F5F8281981708F090E0248152
:1000E00081E0921380E008951F93CF93DF93182F40
:1000F000EB01CB010E94680081110FC0E881F981FA
:100100008B81E80FF11D10838B818F5F8B839A8128
:10011000891728F01B8281E003C080E001C081E0E4
:10012000DF91CF911F9108950F931F93CF93DF938A
:100130008C01EB01CB010E946100811111C0E881AB
:10014000F9818C81E80FF11D8081F80180838C8119
:100150008F5F8C839A81891728F01C8281E003C00D
:1001600080E001C081E0DF91CF911F910F91089550
:1001700010BC8FE189B988E98AB986E880BD60E062
:1001800070E088ED90E00E9456010895CF93C82F4B
:1001900086E091E00E9468008111FACF66E071E08C
:1001A0008C2F0E9474008AB180628AB9CF91089521
:1001B000CF93C82F8A3019F48DE00E94C6008C2F8F
:1001C0000E94C60080E090E0CF9108951F920F92A8
:1001D0000FB60F9211248F938CB18093290181E087
:1001E000809318018AB180628AB98F910F900FBEF7
:1001F0000F901F9018951F920F920FB60F92112417
:100200002F933F934F935F936F937F938F939F931E
:10021000AF93BF93EF93FF93CF93DF931F92CDB72D
:10022000DEB780911801882331F0809129018CB9C3
:10023000109218010EC066E071E0CE0101960E9496
:100240009400882319F089818CB903C08AB18F7D0D
:100250008AB90F90DF91CF91FF91EF91BF91AF914C
:100260009F918F917F916F915F914F913F912F91CE
:100270000F900FBE0F901F901895B89903C087B3C9
:10028000816087BB88B3816088BB83E294EF01976C
:10029000F1F700C0000098B381E0892788BB83E2B2
:1002A00094EF0197F1F700C0000008950F931F939A
:1002B000CF93DF93009731F46115710519F480E055
:1002C00090E03AC08B01EC016EE070E081E090E0DC
:1002D0000E94D101FC01892B91F380E883830115F1
:1002E000110571F01387028781E8838380912A01C9
:1002F00090912B01892B21F4F0932B01E0932A019B
:100300002097C9F0D187C0878381826083838091E1
:100310002C0190912D01892B71F4F0932D01E09324
:100320002C0180912E0190912F01892B21F4F093C3
:100330002F01E0932E01CF01DF91CF911F910F91FB
:1003400008950F931F93CF93DF93E0912C01F091C9
:100350002D01238121FF1BC08C01D0E0C0E0F801FA
:1003600081918F0160912C0170912D01DB01189614
:10037000ED91FC911997882331F00995892B79F338
:10038000DFEFCFEFECCF8AE00995892B19F08FEFE3
:100390009FEF02C08D2F9C2FDF91CF911F910F9166
:1003A00008950F931F93CF93DF93869F8001879FBC
:1003B000100D969F100D1124C8010E94ED01EC0153
:1003C000009729F0A80160E070E00E940E03CE01C2
:1003D000DF91CF911F910F9108950F931F93CF93AA
:1003E000DF938230910510F482E090E0E0913201D9
:1003F000F091330120E030E0A0E0B0E0309719F157
:10040000408151810281138148175907C8F0841730
:10041000950769F4109731F012960C931297139682
:100420001C9327C0009332011093330122C0211581
:10043000310519F04217530718F49A01BD01EF0175
:10044000DF01F801DBCF21153105F9F0281B390B4D
:100450002430310580F48A819B816115710521F07A
:10046000FB019383828304C0909333018093320114
:10047000FE01329644C0FE01E20FF31F8193919377
:1004800022503109398328833AC0209130013091BC
:100490003101232B41F4209102013091030130936B
:1004A000310120933001209100013091010121158B
:1004B000310541F42DB73EB740910401509105013B
:1004C000241B350BE0913001F0913101E217F30765
:1004D000A0F42E1B3F0B2817390778F0AC014E5FB4
:1004E0005F4F2417350748F04E0F5F1F50933101BF
:1004F000409330018193919302C0E0E0F0E0CF019E
:10050000DF91CF911F910F910895CF93DF930097C3
:1005100009F481C0FC01329713821282A09132014A
:10052000B0913301109781F420813181820F931FA4
:1005300020913001309131012817390751F5F0939E
:100540003101E093300167C0ED0120E030E0CE17CB
:10055000DF0740F44A815B819E0141155105F1F0AE
:10056000EA01F5CFD383C28340815181840F951F67
:10057000C817D90759F488819981840F951F02966D
:10058000918380838A819B819383828321153105A6
:1005900029F4F0933301E09332013DC0E901FB837C
:1005A000EA8349915991C40FD51FEC17FD0761F4F7
:1005B00080819181840F951F0296E9019983888338
:1005C000828193819B838A83E0E0F0E012968D9193
:1005D0009C911397009719F0FD01DC01F7CF8D91E5
:1005E0009C9111979D012E5F3F4F820F931F209189
:1005F0003001309131012817390769F4309729F417
:10060000109233011092320102C013821282B09311
:100610003101A0933001DF91CF910895DC0101C039
:0E0620006D9341505040E0F70895F894FFCFDD
:10062E00000034012000190110000048656C6C6F49
:08063E0020576F726C6421006B
:00000001FF
